{
  "contractName": "SocialMusic",
  "abi": [
    {
      "constant": true,
      "inputs": [
        {
          "internalType": "address",
          "name": "",
          "type": "address"
        }
      ],
      "name": "users",
      "outputs": [
        {
          "internalType": "string",
          "name": "name",
          "type": "string"
        },
        {
          "internalType": "uint256",
          "name": "age",
          "type": "uint256"
        },
        {
          "internalType": "string",
          "name": "state",
          "type": "string"
        }
      ],
      "payable": false,
      "stateMutability": "view",
      "type": "function"
    },
    {
      "constant": false,
      "inputs": [
        {
          "internalType": "string",
          "name": "_name",
          "type": "string"
        },
        {
          "internalType": "uint256",
          "name": "_age",
          "type": "uint256"
        },
        {
          "internalType": "string",
          "name": "_state",
          "type": "string"
        }
      ],
      "name": "setup",
      "outputs": [],
      "payable": false,
      "stateMutability": "nonpayable",
      "type": "function"
    }
  ],
  "bytecode": "0x608060405234801561001057600080fd5b5061097a806100206000396000f3fe608060405234801561001057600080fd5b50600436106100365760003560e01c8063a87430ba1461003b578063bd631e7b1461016b575b600080fd5b61007d6004803603602081101561005157600080fd5b81019080803573ffffffffffffffffffffffffffffffffffffffff1690602001909291905050506102c7565b604051808060200184815260200180602001838103835286818151815260200191508051906020019080838360005b838110156100c75780820151818401526020810190506100ac565b50505050905090810190601f1680156100f45780820380516001836020036101000a031916815260200191505b50838103825284818151815260200191508051906020019080838360005b8381101561012d578082015181840152602081019050610112565b50505050905090810190601f16801561015a5780820380516001836020036101000a031916815260200191505b509550505050505060405180910390f35b6102c56004803603606081101561018157600080fd5b810190808035906020019064010000000081111561019e57600080fd5b8201836020820111156101b057600080fd5b803590602001918460018302840111640100000000831117156101d257600080fd5b91908080601f016020809104026020016040519081016040528093929190818152602001838380828437600081840152601f19601f820116905080830192505050505050509192919290803590602001909291908035906020019064010000000081111561023f57600080fd5b82018360208201111561025157600080fd5b8035906020019184600183028401116401000000008311171561027357600080fd5b91908080601f016020809104026020016040519081016040528093929190818152602001838380828437600081840152601f19601f820116905080830192505050505050509192919290505050610421565b005b6000602052806000526040600020600091509050806000018054600181600116156101000203166002900480601f0160208091040260200160405190810160405280929190818152602001828054600181600116156101000203166002900480156103735780601f1061034857610100808354040283529160200191610373565b820191906000526020600020905b81548152906001019060200180831161035657829003601f168201915b505050505090806001015490806002018054600181600116156101000203166002900480601f0160208091040260200160405190810160405280929190818152602001828054600181600116156101000203166002900480156104175780601f106103ec57610100808354040283529160200191610417565b820191906000526020600020905b8154815290600101906020018083116103fa57829003601f168201915b5050505050905083565b600083511161042f57600080fd5b6040518060a001604052808481526020018381526020018281526020016000803373ffffffffffffffffffffffffffffffffffffffff1673ffffffffffffffffffffffffffffffffffffffff168152602001908152602001600020600301805480602002602001604051908101604052809291908181526020016000905b82821015610569578382906000526020600020018054600181600116156101000203166002900480601f0160208091040260200160405190810160405280929190818152602001828054600181600116156101000203166002900480156105555780601f1061052a57610100808354040283529160200191610555565b820191906000526020600020905b81548152906001019060200180831161053857829003601f168201915b5050505050815260200190600101906104ad565b5050505081526020016000803373ffffffffffffffffffffffffffffffffffffffff1673ffffffffffffffffffffffffffffffffffffffff16815260200190815260200160002060040180548060200260200160405190810160405280929190818152602001828054801561063357602002820191906000526020600020905b8160009054906101000a900473ffffffffffffffffffffffffffffffffffffffff1673ffffffffffffffffffffffffffffffffffffffff16815260200190600101908083116105e9575b50505050508152506000803373ffffffffffffffffffffffffffffffffffffffff1673ffffffffffffffffffffffffffffffffffffffff16815260200190815260200160002060008201518160000190805190602001906106959291906106ff565b506020820151816001015560408201518160020190805190602001906106bc9291906106ff565b5060608201518160030190805190602001906106d992919061077f565b5060808201518160040190805190602001906106f69291906107df565b50905050505050565b828054600181600116156101000203166002900490600052602060002090601f016020900481019282601f1061074057805160ff191683800117855561076e565b8280016001018555821561076e579182015b8281111561076d578251825591602001919060010190610752565b5b50905061077b9190610869565b5090565b8280548282559060005260206000209081019282156107ce579160200282015b828111156107cd5782518290805190602001906107bd9291906106ff565b509160200191906001019061079f565b5b5090506107db919061088e565b5090565b828054828255906000526020600020908101928215610858579160200282015b828111156108575782518260006101000a81548173ffffffffffffffffffffffffffffffffffffffff021916908373ffffffffffffffffffffffffffffffffffffffff160217905550916020019190600101906107ff565b5b50905061086591906108ba565b5090565b61088b91905b8082111561088757600081600090555060010161086f565b5090565b90565b6108b791905b808211156108b357600081816108aa91906108fd565b50600101610894565b5090565b90565b6108fa91905b808211156108f657600081816101000a81549073ffffffffffffffffffffffffffffffffffffffff0219169055506001016108c0565b5090565b90565b50805460018160011615610100020316600290046000825580601f106109235750610942565b601f0160209004906000526020600020908101906109419190610869565b5b5056fea265627a7a72315820c612795f7a9e4d5d705ebd333813aee718a384758dfe8e565fb0474c8589115b64736f6c63430005100032",
  "source": "pragma solidity ^0.5.0;\n\ncontract SocialMusic {\n    struct User {\n        string name;                // User's name\n        uint256 age;                // User's age\n        string state;               // Description of user or how they feel\n        string[] recommendations;   // User's music recommendations to other Users\n        address[] following;        // Other Users this User is following \n    }\n\n    mapping(address => User) public users;\n\n    function setup(string memory _name, uint256 _age, string memory _state) public {\n        // Cannot have an empty name\n        require(bytes(_name).length > 0);\n        users[msg.sender] = User(_name, _age, _state, users[msg.sender].recommendations, users[msg.sender].following);\n    }\n\n    /*\n    function addSong(string memory _songName) public {\n        // Cannot have an empty song name or one that's too long\n        require(bytes(_songName).length > 0 && bytes(_songName).length <= 100);\n        users[msg.sender].recommendations.push(_songName);\n    }\n\n    function follow(address _user) public {\n        // Prevent following the genesis block\n        require(_user != address(0));\n        // Prevent users from following themselves, i.e. loops\n        require(_user != msg.sender);\n        users[msg.sender].following.push(_user);\n    }\n    */\n}\n",
  "sourcePath": "/Users/ericboris/Developer/social-music-tutorial/src/contracts/SocialMusic.sol",
  "compiler": {
    "name": "solc",
    "version": "0.5.16+commit.9c3226ce.Emscripten.clang"
  },
  "schemaVersion": "3.4.2",
  "updatedAt": "2021-07-27T21:59:30.785Z",
  "networkType": "ethereum",
  "devdoc": {
    "methods": {}
  },
  "userdoc": {
    "methods": {}
  }
}